:100000000C942A000C9434000C9434000C943400AA
:100010000C9434000C9434000C9434000C94340090
:100020000C9434000C9434000C9434000C94340080
:100030000C9434000C9434000C9434000C94340070
:100040000C9434000C9434000C9434000C94340060
:100050000C94340011241FBECFE5D8E0DEBFCDBF25
:100060000E9436000C949D010C94000041E060E079
:1000700080E00E948100C0E01DC041E060E080E0BF
:100080000E94F4002FEF89E698E1215080409040D3
:10009000E1F700C0000040E060E080E00E94F40072
:1000A0002FEF89E698E1215080409040E1F700C0B1
:1000B0000000CF5FC53008F32FEF83ED90E32150B0
:1000C00080409040E1F700C00000C0E00EC060E05A
:1000D00080E00E9467012FEF89E698E1215080407F
:1000E0009040E1F700C00000CF5FCA3080F32FEFEF
:1000F00083ED90E3215080409040E1F700C0000084
:10010000BACF683008F06FC04130A1F5813089F076
:1001100028F08230C9F0833011F108952AB381E0CC
:1001200090E002C0880F991F6A95E2F7822B8ABB84
:10013000089527B381E090E002C0880F991F6A9567
:10014000E2F7822B87BB089524B381E090E002C0E0
:10015000880F991F6A95E2F7822B84BB089521B31B
:1001600081E090E002C0880F991F6A95E2F7822B28
:1001700081BB0895411137C0813091F028F0823061
:10018000D9F0833029F108952AB381E090E002C0CC
:10019000880F991F6A95E2F7809582238ABB08959C
:1001A00027B381E090E002C0880F991F6A95E2F7BB
:1001B0008095822387BB089524B381E090E002C03C
:1001C000880F991F6A95E2F78095822384BB089572
:1001D00021B381E090E002C0880F991F6A95E2F791
:1001E0008095822381BB0895683008F06FC041304C
:1001F000A1F5813089F028F08230C9F0833011F107
:1002000008952BB381E090E002C0880F991F6A9592
:10021000E2F7822B8BBB089528B381E090E002C007
:10022000880F991F6A95E2F7822B88BB089525B342
:1002300081E090E002C0880F991F6A95E2F7822B57
:1002400085BB089522B381E090E002C0880F991F1A
:100250006A95E2F7822B82BB0895411137C0813045
:1002600091F028F08230D9F0833029F108952BB332
:1002700081E090E002C0880F991F6A95E2F78095AF
:1002800082238BBB089528B381E090E002C0880FE1
:10029000991F6A95E2F78095822388BB089525B35C
:1002A00081E090E002C0880F991F6A95E2F780957F
:1002B000822385BB089522B381E090E002C0880FBD
:1002C000991F6A95E2F78095822382BB0895683072
:1002D00098F5813089F028F08230C9F0833011F12F
:1002E00008952BB381E090E002C0880F991F6A95B2
:1002F000E2F782278BBB089528B381E090E002C02B
:10030000880F991F6A95E2F7822788BB089525B365
:1003100081E090E002C0880F991F6A95E2F782277A
:1003200085BB089522B381E090E002C0880F991F39
:0E0330006A95E2F7822782BB0895F894FFCF0A
:00000001FF
