:100000000C942A000C943F000C943F000C943F0089
:100010000C943F000C943F000C943F000C943F0064
:100020000C943F000C943F000C943F000C943F0054
:100030000C943F000C943F000C943F000C943F0044
:100040000C943F000C943F000C943F000C943F0034
:100050000C943F0011241FBECFE5D8E0DEBFCDBF1A
:1000600010E0A0E6B0E0E6E4F5E002C005900D92F5
:10007000A837B107D9F70E9447010C94A1020C944C
:100080000000CF93C82F482F417064E080E00E94A9
:100090000F02C1FB442740F965E080E00E940F0297
:1000A000C2FB442740F966E080E00E940F02C3FBD8
:1000B000442740F967E080E00E940F02CF91089545
:1000C00041E062E081E00E940F028FE39CE901972A
:1000D000F1F700C0000040E062E081E00E940F0202
:1000E0000895CF93C82F40E060E081E00E940F02A6
:1000F00041E061E081E00E940F028C2F82958F70B9
:100100000E9441000E9460008C2F0E9441000E94CA
:100110006000CF910895CF93C82F40E060E081E068
:100120000E940F0240E061E081E00E940F028C2FEC
:1001300082958F700E9441000E9460008C2F0E9467
:1001400041000E946000CF9108956FEF80E00E940F
:10015000820241E060E081E00E949C0141E061E0B8
:1001600081E00E949C0141E062E081E00E949C01EC
:100170002FEF83EF91E0215080409040E1F700C0E5
:10018000000082E00E9441000E94600082E00E9424
:1001900041000E94600088E00E9441000E946000CF
:1001A0008FE00E948B0081E00E948B000895CF9326
:1001B000DF93EC0103C021960E94710088818111B8
:1001C000FACFDF91CF91089590E4699F800D1124BB
:1001D00080680E948B0008951F93CF93DF93CDB763
:1001E000DEB72A970FB6F894DEBF0FBECDBFAC01C5
:1001F000892B91F580E30E9471003FC09A01ADEC1C
:10020000BCEC0E9492029695879596958795969557
:1002100087959C01220F331F880F991F880F991F04
:10022000880F991F820F931F9A01281B390BC90150
:10023000E1E0F0E0EC0FFD1FE10FF11D805D808338
:100240009A010E949202AC015695479556954795A2
:10025000569547951F5F01C010E04115510571F695
:100260000AC01150E1E0F0E0EC0FFD1FE10FF11DBD
:1002700080810E9471001111F4CF2A960FB6F89474
:10028000DEBF0FBECDBFDF91CF911F9108950E94B9
:10029000A5000E947B0160E080E00E94E40080E60F
:1002A00090E00E94D70080E00E948E019C01A8E8A7
:1002B000B3E10E9492026B017C010B2EBAE0F6942E
:1002C000E794D794C794BA95D1F7B02D61E080E058
:1002D0000E94E400C6010E94EC0080E790E00E94CA
:1002E000D7002FEF84E39CE0215080409040E1F75D
:1002F00000C00000D8CF86B1816086B986B1826027
:1003000086B986B1846086B987B1806487B987B1C0
:100310008F7787B986B1806886B9089597B1987F3D
:1003200097B997B1892B87B986B1806486B9349B18
:10033000FECF84B195B10895683008F06FC04130A8
:10034000A1F5813089F028F08230C9F0833011F1B5
:1003500008952AB381E090E002C0880F991F6A9542
:10036000E2F7822B8ABB089527B381E090E002C0B8
:10037000880F991F6A95E2F7822B87BB089524B3F3
:1003800081E090E002C0880F991F6A95E2F7822B06
:1003900084BB089521B381E090E002C0880F991FCB
:1003A0006A95E2F7822B81BB0895411137C08130F5
:1003B00091F028F08230D9F0833029F108952AB3E2
:1003C00081E090E002C0880F991F6A95E2F780955E
:1003D00082238ABB089527B381E090E002C0880F92
:1003E000991F6A95E2F78095822387BB089524B30D
:1003F00081E090E002C0880F991F6A95E2F780952E
:10040000822384BB089521B381E090E002C0880F6D
:10041000991F6A95E2F78095822381BB0895683021
:1004200008F06FC04130A1F5813089F028F08230AA
:10043000C9F0833011F108952BB381E090E002C040
:10044000880F991F6A95E2F7822B8BBB089528B31A
:1004500081E090E002C0880F991F6A95E2F7822B35
:1004600088BB089525B381E090E002C0880F991FF2
:100470006A95E2F7822B85BB089522B381E090E074
:1004800002C0880F991F6A95E2F7822B82BB0895FC
:10049000411137C0813091F028F08230D9F083309B
:1004A00029F108952BB381E090E002C0880F991FD5
:1004B0006A95E2F7809582238BBB089528B381E08B
:1004C00090E002C0880F991F6A95E2F78095822319
:1004D00088BB089525B381E090E002C0880F991F82
:1004E0006A95E2F78095822385BB089522B381E067
:1004F00090E002C0880F991F6A95E2F780958223E9
:1005000082BB0895813041F028F0823039F0833089
:1005100039F008956ABB089567BB089564BB0895D8
:1005200061BB0895A29FB001B39FC001A39F700D4E
:10053000811D1124911DB29F700D811D1124911DEB
:060540000895F894FFCFBE
:1005460041444320566F6C742056616C75653A00C1
:08055600206D5620202000005A
:00000001FF
