:100000000C942A000C9447000C9447000C94470071
:100010000C9447000C9447000C9447000C94470044
:100020000C9447000C9447000C9447000C940F016B
:100030000C9447000C9447000C9447000C94470024
:100040000C9447000C9447000C9447000C94470014
:100050000C94470011241FBECFE5D8E0DEBFCDBF12
:1000600010E0A0E6B0E0E0E7F2E002C005900D92FB
:10007000A036B107D9F720E0A0E6B0E001C01D929C
:10008000A236B207E1F70E9449000C9436010C94A5
:10009000000041E063E081E00E9487000E9466006A
:1000A00083E00E94FA0080E00E947900969587958F
:1000B000969587950E940D012FEF89EF90E02150D2
:1000C00080409040E1F700C00000EDCF86B1816034
:1000D00086B986B1826086B986B1846086B987B1F7
:1000E000806487B987B18F7787B986B1806886B910
:1000F000089597B1987F97B997B1892B87B986B141
:10010000806486B9349BFECF84B195B10895683080
:1001100008F06FC04130A1F5813089F028F08230BD
:10012000C9F0833011F108952AB381E090E002C054
:10013000880F991F6A95E2F7822B8ABB089527B32F
:1001400081E090E002C0880F991F6A95E2F7822B48
:1001500087BB089524B381E090E002C0880F991F07
:100160006A95E2F7822B84BB089521B381E090E089
:1001700002C0880F991F6A95E2F7822B81BB089510
:10018000411137C0813091F028F08230D9F08330AE
:1001900029F108952AB381E090E002C0880F991FE9
:1001A0006A95E2F7809582238ABB089527B381E0A0
:1001B00090E002C0880F991F6A95E2F7809582232C
:1001C00087BB089524B381E090E002C0880F991F97
:1001D0006A95E2F78095822384BB089521B381E07C
:1001E00090E002C0880F991F6A95E2F780958223FC
:1001F00081BB089593B7987F93BF93B7892B83BF33
:1002000083B7806483BF83B7886083BF83B780620E
:1002100083BF83B78F7E83BF08958CBF08951F92DD
:100220000F920FB60F9211242F933F934F935F932A
:100230006F937F938F939F93AF93BF93EF93FF93AE
:10024000E0916000F09161000995FF91EF91BF91FD
:10025000AF919F918F917F916F915F914F913F915E
:100260002F910F900FBE0F901F901895F894FFCF0D
:00000001FF
