:100000000C942A000C94DC000C94F1000C943C003D
:100010000C943C000C943C000C943C000C943C0070
:100020000C943C000C943C000C943C000C943C0060
:100030000C943C000C943C000C943C000C943C0050
:100040000C943C000C943C000C943C000C943C0040
:100050000C943C0011241FBECFE5D8E0DEBFCDBF1D
:1000600020E0A0E6B0E001C01D92A136B207E1F7A2
:100070000E9406010C949E020C940000CF93C82F9E
:10008000482F417064E080E00E94B701C1FB442723
:1000900040F965E080E00E94B701C2FB442740F9C7
:1000A00066E080E00E94B701C3FB442740F967E0A7
:1000B00080E00E94B701CF91089541E062E081E0C5
:1000C0000E94B7018FE39CE90197F1F700C000009F
:1000D00040E062E081E00E94B7010895CF93C82F0D
:1000E00040E060E081E00E94B70141E061E081E032
:1000F0000E94B7018C2F82958F700E943E000E9453
:100100005D008C2F0E943E000E945D00CF910895FB
:10011000CF93C82F40E060E081E00E94B70140E04B
:1001200061E081E00E94B7018C2F82958F700E9460
:100130003E000E945D008C2F0E943E000E945D00E8
:10014000CF9108956FEF80E00E942A0241E060E0C5
:1001500081E00E94440141E061E081E00E944401AD
:1001600041E062E081E00E9444012FEF83EF91E0E3
:10017000215080409040E1F700C0000082E00E94E2
:100180003E000E945D0082E00E943E000E945D00F1
:1001900088E00E943E000E945D008FE00E9488007F
:1001A00081E00E948800089590E4699F800D1124E9
:1001B00080680E94880008951F920F920FB60F92D8
:1001C00011248F9380916000893028F48091600021
:1001D0008F5F809360008F910F900FBE0F901F90E4
:1001E00018951F920F920FB60F9211248F93809142
:1001F0006000882329F08091600081508093600026
:100200008F910F900FBE0F901F90189540E062E005
:1002100083E00E94440141E062E083E00E94B70174
:1002200040E063E083E00E94440141E063E083E05A
:100230000E94B70162E080E00E94420262E081E039
:100240000E9442020E943E020E943A0278940E945A
:10025000A20060E080E00E94D40080916000805D98
:100260000E946E0090916000809160009817E1F309
:1002700060E080E00E94D40080916000805D0E9478
:100280006E0090916000F0CF683008F06FC0413090
:10029000A1F5813089F028F08230C9F0833011F166
:1002A00008952AB381E090E002C0880F991F6A95F3
:1002B000E2F7822B8ABB089527B381E090E002C069
:1002C000880F991F6A95E2F7822B87BB089524B3A4
:1002D00081E090E002C0880F991F6A95E2F7822BB7
:1002E00084BB089521B381E090E002C0880F991F7C
:1002F0006A95E2F7822B81BB0895411137C08130A6
:1003000091F028F08230D9F0833029F108952AB392
:1003100081E090E002C0880F991F6A95E2F780950E
:1003200082238ABB089527B381E090E002C0880F42
:10033000991F6A95E2F78095822387BB089524B3BD
:1003400081E090E002C0880F991F6A95E2F78095DE
:10035000822384BB089521B381E090E002C0880F1E
:10036000991F6A95E2F78095822381BB08956830D2
:1003700008F06FC04130A1F5813089F028F082305B
:10038000C9F0833011F108952BB381E090E002C0F1
:10039000880F991F6A95E2F7822B8BBB089528B3CB
:1003A00081E090E002C0880F991F6A95E2F7822BE6
:1003B00088BB089525B381E090E002C0880F991FA3
:1003C0006A95E2F7822B85BB089522B381E090E025
:1003D00002C0880F991F6A95E2F7822B82BB0895AD
:1003E000411137C0813091F028F08230D9F083304C
:1003F00029F108952BB381E090E002C0880F991F86
:100400006A95E2F7809582238BBB089528B381E03B
:1004100090E002C0880F991F6A95E2F780958223C9
:1004200088BB089525B381E090E002C0880F991F32
:100430006A95E2F78095822385BB089522B381E017
:1004400090E002C0880F991F6A95E2F78095822399
:1004500082BB0895813041F028F0823039F083303A
:1004600039F008956ABB089567BB089564BB089589
:1004700061BB08958BB780688BBF08958BB780648C
:100480008BBF0895813049F120F0823009F449C0D2
:100490000895613069F028F0623089F06330B1F07E
:1004A000089585B78E7F85BF85B78D7F85BF0895F9
:1004B00085B7816085BF85B78D7F85BF089585B776
:1004C0008E7F85BF85B7826085BF089585B78160BF
:1004D00085BF85B7826085BF0895613069F028F0D7
:1004E000623089F06330B1F0089585B78B7F85BFA6
:1004F00085B7877F85BF089585B7846085BF85B739
:10050000877F85BF089585B78B7F85BF85B7886056
:1005100085BF089585B7846085BF85B7886085BF2E
:100520000895623019F0633029F0089584B78F7B05
:1005300084BF089584B7806484BF0895F894FFCF82
:00000001FF
