S01200004153414144204F4D45522E7372656365
S11300000C942A000C943F000C943F000C943F0085
S11300100C943F000C943F000C943F000C943F0060
S11300200C943F000C943F000C943F000C943F0050
S11300300C943F000C943F000C943F000C943F0040
S11300400C943F000C943F000C943F000C943F0030
S11300500C943F0011241FBECFE5D8E0DEBFCDBF16
S113006010E0A0E6B0E0ECECF8E002C005900D92E0
S1130070AA39B107D9F70E9466010C9464040C9460
S11300800000CF93C82F482F417064E080E00E94A5
S11300900E03C1FB442740F965E080E00E940E0393
S11300A0C2FB442740F966E080E00E940E03C3FBD4
S11300B0442740F967E080E00E940E03CF91089541
S11300C041E062E081E00E940E038FE39CE9019726
S11300D0F1F700C0000040E062E081E00E940E03FE
S11300E00895CF93C82F40E060E081E00E940E03A2
S11300F041E061E081E00E940E038C2F82958F70B5
S11301000E9441000E9460008C2F0E9441000E94C6
S11301106000CF910895CF93C82F40E060E081E064
S11301200E940E0340E061E081E00E940E038C2FE8
S113013082958F700E9441000E9460008C2F0E9463
S113014041000E946000CF9108956FEF80E00E940B
S1130150810341E060E081E00E949B0241E061E0B4
S113016081E00E949B0241E062E081E00E949B02E8
S11301702FEF83EF91E0215080409040E1F700C0E1
S1130180000082E00E9441000E94600082E00E9420
S113019041000E94600088E00E9441000E946000CB
S11301A08FE00E948B0081E00E948B000895CF9322
S11301B0DF93EC0103C021960E94710088818111B4
S11301C0FACFDF91CF91089581E00E948B000895CA
S11301D090E4699F800D112480680E948B0008952B
S11301E0EF92FF921F93CF93DF9310E01EC0C12FB5
S11301F0D0E0CE0180599F4F7C0140E0FC0160813A
S113020082E00E949B02F701608182E00E94C303A6
S1130210CC58DF4F41E0688183E00E949B0241E0BB
S1130220688183E00E940E031F5F143000F3DF91A6
S1130230CF911F91FF90EF900895EF92FF920F934B
S11302401F93CF93DF93D0E037C0ED2EF12CF7014D
S1130250EC58FF4F40E0608183E00E940E03C0E051
S113026020C00C2F10E0F801E059FF4F608182E0BC
S11302700E949103811114C0F801EE0FFF1FEE0FCD
S1130280FF1FE05AFF4FEE0DFF1DC081F701EC5830
S1130290FF4F41E0608183E00E940E038C2F0FC06A
S11302A0CF5FC430F0F2F701EC58FF4F41E06081BA
S11302B083E00E940E03DF5FD43038F28FEFDF91CA
S11302C0CF911F910F91FF90EF900895CF93DF93FB
S11302D0CDB7DEB72C970FB6F894DEBF0FBECDBFF7
S11302E00E94A5000E94F00088E790E00E94D700D9
S11302F02FEF83ED90E3215080409040E1F700C060
S113030000000E94E40000E0312C812C912C540167
S1130310412C512C3201C12CD12C76010E941D019B
S1130320182F8F3FD9F3833459F40E94E40000E07E
S1130330312C412C512C3201C12CD12C7601F1C02D
S113034080ED810F8A3008F047C0011121C0CC0C28
S1130350DD1CEE1CFF1CD701C601880F991FAA1FC4
S1130360BB1F880F991FAA1FBB1FC80ED91EEA1EE8
S1130370FB1E812F90E0C097092E000CAA0BBB0B2B
S1130380C80ED91EEA1EFB1E812F0E947100C9C02F
S1130390013009F0C6C0440C551C661C771CD301FF
S11303A0C201880F991FAA1FBB1F880F991FAA1F7C
S11303B0BB1F480E591E6A1E7B1E812F90E0C097FA
S11303C0092E000CAA0BBB0B480E591E6A1E7B1E7D
S11303D0812F0E947100A5C01B3231F01D3221F023
S11303E01A3211F01F3241F401119BC0812F0E9477
S11303F07100312E01E095C01D3309F092C0013027
S113040009F08FC08DE30E9471002BE2321669F06F
S1130410231520F08AE23816C1F030C09DE2391667
S113042061F02FE23216D9F029C046015701840C3D
S1130430951CA61CB71C10E024C046015701841863
S11304409508A608B70810E01CC0A7019601C301CF
S1130450B2010E94F9034B015C0110E012C0411487
S113046051046104710461F0C701B601A301920152
S11304700E94090449015A0110E003C010E001C0C0
S113048011E061E080E00E94E800113031F489E875
S113049090E00E94D70002E044C0BB205CF48DE2EF
S11304A00E947100B094A09490948094811C911C3B
S11304B0A11CB11C81149104A104B104E9F480E3EA
S11304C00E94710002E02DC0C501B4012AE030E0B1
S11304D040E050E00E940904E1E0F0E0EC0FFD1F71
S11304E0E10FF11D17FDFA95605D6083822E932E56
S11304F0A42EB52E1F5F01C010E0181419041A04AD
S11305001B0414F30BC0E1E0F0E0EC0FFD1FE10F5E
S1130510F11D17FDFA9580810E94710011509AF720
S113052002E08FEF94E32CE0815090402040E1F70B
S113053000C00000F3CE683008F06FC04130A1F570
S1130540813089F028F08230C9F0833011F10895A8
S11305502AB381E090E002C0880F991F6A95E2F700
S1130560822B8ABB089527B381E090E002C0880FF4
S1130570991F6A95E2F7822B87BB089524B381E023
S113058090E002C0880F991F6A95E2F7822B84BB22
S1130590089521B381E090E002C0880F991F6A9505
S11305A0E2F7822B81BB0895411137C0813091F06D
S11305B028F08230D9F0833029F108952AB381E0FC
S11305C090E002C0880F991F6A95E2F78095822314
S11305D08ABB089527B381E090E002C0880F991F79
S11305E06A95E2F78095822387BB089524B381E05E
S11305F090E002C0880F991F6A95E2F780958223E4
S113060084BB089521B381E090E002C0880F991F54
S11306106A95E2F78095822381BB0895683008F0DB
S11306206FC04130A1F5813089F028F08230C9F0E3
S1130630833011F108952BB381E090E002C0880F5C
S1130640991F6A95E2F7822B8BBB089528B381E04A
S113065090E002C0880F991F6A95E2F7822B88BB4D
S1130660089525B381E090E002C0880F991F6A9530
S1130670E2F7822B85BB089522B381E090E002C0AB
S1130680880F991F6A95E2F7822B82BB0895411166
S113069037C0813091F028F08230D9F0833029F1CD
S11306A008952BB381E090E002C0880F991F6A95EA
S11306B0E2F7809582238BBB089528B381E090E014
S11306C002C0880F991F6A95E2F78095822388BB40
S11306D0089525B381E090E002C0880F991F6A95C0
S11306E0E2F78095822385BB089522B381E090E0F0
S11306F002C0880F991F6A95E2F78095822382BB16
S11307000895813041F028F0823039F0833039F097
S113071008956ABB089567BB089564BB089561BBDF
S11307200895683060F5813079F028F08230A9F0BE
S11307308330E1F026C089B390E002C09595879597
S11307406A95E2F78170089586B390E002C09595AA
S113075087956A95E2F78170089583B390E002C0AB
S1130760959587956A95E2F78170089580B390E036
S113077002C0959587956A95E2F78170089580E0A7
S1130780089580E00895683098F5813089F028F064
S11307908230C9F0833011F108952BB381E090E0E9
S11307A002C0880F991F6A95E2F7822B8BBB0895CC
S11307B028B381E090E002C0880F991F6A95E2F7A0
S11307C0822B88BB089525B381E090E002C0880F96
S11307D0991F6A95E2F7822B85BB089522B381E0C5
S11307E090E002C0880F991F6A95E2F7822B82BBC2
S11307F00895DB018F939F930E942804BF91AF91CA
S1130800A29F800D911DA39F900DB29F900D112466
S11308100895052E97FB1EF400940E94200457FDB2
S113082007D00E94330407FC03D04EF40C94200438
S113083050954095309521953F4F4F4F5F4F089508
S113084090958095709561957F4F8F4F9F4F089538
S11308500E945504A59F900DB49F900DA49F800DF8
S1130860911D11240895A1E21A2EAA1BBB1BFD01A0
S11308700DC0AA1FBB1FEE1FFF1FA217B307E4077B
S1130880F50720F0A21BB30BE40BF50B661F771FD3
S1130890881F991F1A9469F76095709580959095B3
S11308A09B01AC01BD01CF010895A29FB001B39F8C
S11308B0C001A39F700D811D1124911DB29F700D65
S10F08C0811D1124911D0895F894FFCFB0
S11308CC3738392F3435362A3132332D43303D2BDA
S11308DC000102030001020343616C63756C6174D3
S11308EC6F72205265616479004572726F723A209E
S10D08FC4469762062792030000080
S9030000FC
