S01200004153414144204F4D45522E7372656365
S11300000C942A000C9493000C94A8000C944700C0
S11300100C9447000C9447000C9447000C94470040
S11300200C9447000C9447000C9447000C94470030
S11300300C9447000C9447000C9447000C94470020
S11300400C9447000C9447000C9447000C94470010
S11300500C94470011241FBECFE5D8E0DEBFCDBF0E
S113006010E0A0E6B0E0EEE6F4E002C005900D92E8
S1130070A036B107D9F720E0A0E6B0E001C01D9298
S1130080A136B207E1F70E94BD000C9435020C942E
S11300900000809160008130B1F028F0823019F1C5
S11300A0833089F1089540E060E080E00E945C01C3
S11300B040E061E080E00E945C0140E062E080E0BA
S11300C00E945C01089541E060E080E00E945C01D0
S11300D040E061E080E00E945C0140E062E080E09A
S11300E00E945C01089541E060E080E00E945C01B0
S11300F041E061E080E00E945C0140E062E080E079
S11301000E945C01089541E060E080E00E945C018F
S113011041E061E080E00E945C0141E062E080E057
S11301200E945C0108951F920F920FB60F92112442
S11301308F9380916000833028F4809160008F5FFA
S1130140809360008F910F900FBE0F901F901895B1
S11301501F920F920FB60F9211248F93809160001B
S1130160882329F0809160008150809360008F91F2
S11301700F900FBE0F901F90189541E060E080E053
S11301800E94E90041E061E080E00E94E90041E072
S113019062E080E00E94E9000E94490040E062E0E1
S11301A083E00E94E90040E063E083E00E94E9000C
S11301B063E080E00E94D70163E081E00E94D70100
S11301C00E94D3010E94CF010E9433020E94490081
S11301D0FDCF683008F06FC04130A1F5813089F05F
S11301E028F08230C9F0833011F108952AB381E0F8
S11301F090E002C0880F991F6A95E2F7822B8ABBB0
S1130200089527B381E090E002C0880F991F6A9592
S1130210E2F7822B87BB089524B381E090E002C00B
S1130220880F991F6A95E2F7822B84BB089521B346
S113023081E090E002C0880F991F6A95E2F7822B53
S113024081BB0895411137C0813091F028F082308C
S1130250D9F0833029F108952AB381E090E002C0F7
S1130260880F991F6A95E2F7809582238ABB0895C7
S113027027B381E090E002C0880F991F6A95E2F7E6
S11302808095822387BB089524B381E090E002C067
S1130290880F991F6A95E2F78095822384BB08959D
S11302A021B381E090E002C0880F991F6A95E2F7BC
S11302B08095822381BB0895683008F06FC0413077
S11302C0A1F5813089F028F08230C9F0833011F132
S11302D008952BB381E090E002C0880F991F6A95BE
S11302E0E2F7822B8BBB089528B381E090E002C033
S11302F0880F991F6A95E2F7822B88BB089525B36E
S113030081E090E002C0880F991F6A95E2F7822B82
S113031085BB089522B381E090E002C0880F991F45
S11303206A95E2F7822B82BB0895411137C0813070
S113033091F028F08230D9F0833029F108952BB35D
S113034081E090E002C0880F991F6A95E2F78095DA
S113035082238BBB089528B381E090E002C0880F0C
S1130360991F6A95E2F78095822388BB089525B387
S113037081E090E002C0880F991F6A95E2F78095AA
S1130380822385BB089522B381E090E002C0880FE8
S1130390991F6A95E2F78095822382BB08958BB7F3
S11303A080688BBF08958BB780648BBF08958130BC
S11303B049F120F0823009F449C00895613069F0B0
S11303C028F0623089F06330B1F0089585B78E7FEC
S11303D085BF85B78D7F85BF089585B7816085BF4B
S11303E085B78D7F85BF089585B78E7F85BF85B717
S11303F0826085BF089585B7816085BF85B78260B7
S113040085BF0895613069F028F0623089F0633067
S1130410B1F0089585B78B7F85BF85B7877F85BF8A
S1130420089585B7846085BF85B7877F85BF0895A4
S113043085B78B7F85BF85B7886085BF089585B7ED
S1130440846085BF85B7886085BF0895623019F0E0
S1130450633029F0089584B78F7B84BF089584B7EF
S1110460806484BF089578940895F894FFCFC3
S9030000FC
